:020000040800F2
:1000000018110020B502000815580008A74800087C
:1000100000000000000000000000000000000000E0
:10002000000000000000000000000000FF60000869
:100030000000000000000000FD60000801610008F1
:10004000C702000800000000C7020008C70200083D
:10005000C7020008C7020008C702000805280008F8
:10006000000000003D2700084D270008C7020008D7
:10007000C7020008C7020008C7020008000000000D
:100080007D6100080000000000000000C7020008B9
:1000900000000000C7020008C7020008C7020008ED
:1000A000A9480008C7020008C7020008C7020008E4
:1000B000C96D000800000000000000000000000002
:1000C00000F002F800F0CBF812A030C8083824186D
:1000D0002D18AC4201D100F0C2F80FCCA246AB46BD
:1000E0000CA730CF2D1B083F3F197C427F1E544484
:1000F0002D090426F441641EAC4201D300F0AFF890
:100100000126334200D0FB1A3343984754465D46DC
:10011000DFE700007479000094790000103A02D300
:1001200078C878C1FAD8520701D330C830C101D598
:1001300004680C6070470000704700000023002432
:1001400000250026103A01D378C1FBD8520700D30E
:1001500030C100D50B60704710B56E2902D100F098
:10016000EFFF10BD702902D101F029F910BD6629F9
:1001700002D106F0E7FE10BD652902D106F0E2FECD
:1001800010BD672902D106F0DDFE10BD612902D144
:1001900006F0E0FE10BD03681B0A01D3802319435B
:1001A000692902D100F096FF10BD642902D100F048
:1001B00091FF10BD752902D100F08CFF10BD6F2991
:1001C00002D101F0A7F810BD782902D101F0E4F8BE
:1001D00010BDE92902D101F043F810BDE42902D194
:1001E00001F03EF810BDF52902D101F039F810BD3B
:1001F000EF2902D101F09AF810BDF82902D101F0DF
:10020000D9F810BD0368DB0901D3802319436329A2
:1002100002D101F0BCFD10BD732902D101F0BFFD78
:1002200010BDE32902D101F0C9FD10BDF32902D1AF
:1002300001F0CCFD10BD002010BD1FB501F02CFE5B
:1002400004000020002106F067FE401C60600020D2
:10025000002106F04BFEE0601FBD10B510BD01F09F
:10026000F3FD1146FFF7E9FF06F0D0FD02F088F933
:1002700003B4FFF7F2FF03BC02F08AF970B505463C
:100280000C46164602E00FCC0FC5103E102EFAD2D7
:10029000082E02D303CC03C5083E042E07D301CC9D
:1002A00001C5361F03E021782970641C6D1C761E81
:1002B000F9D270BD0748804707480047FEE7FEE7D0
:1002C000FEE7FEE7FEE7FEE704480549054A064B60
:1002D0007047000079610008C1000008180B002079
:1002E00018110020180D0020180D00201CB50C4618
:1002F000064B7B4469460090204600F03AFF0446D6
:100300000020694600F048FF20461CBDA30E0000F7
:10031000F8B5042A2CD3830712D00B78491C03703C
:10032000401C521E83070BD00B78491C0370401CE5
:10033000521E830704D00B78491C0370401C521EC8
:100340008B079B0F05D0C91ADF002023DE1B08C9CD
:100350000AE0FFF793FFF8BD1D4608C9FD401C46A3
:10036000B4402C4310C0121F042AF5D2F308C91A56
:10037000521EF0D40B78491C0370401C521EEAD464
:100380000B78491C0370401C012AE4D409780170E1
:10039000F8BD01E004C0091F0429FBD28B0701D579
:1003A0000280801CC90700D00270704700290BD062
:1003B000C30702D00270401C491E022904D38307E0
:1003C00002D50280801C891EE3E70022EEE70022AE
:1003D000DFE70000024670B50A4392072AD11E4D9E
:1003E000EE0104C808C9541B9443344017D0D0B25E
:1003F000D9B2401A2106014310D190B299B2401AE5
:10040000210401430AD110021902000A090A401A04
:100410002102014302D1100E190E401A70BD9A42FA
:10042000DFD010BA19BA884201D9012070BD00206E
:10043000C04370BD02780B78401C491C002A09D0CB
:100440009A4207D102780B78401C491C002A01D03F
:100450009A42EFD0D01A70BD0101010100220309B8
:100460008B422CD3030A8B4211D300239C464EE0CF
:1004700003460B433CD4002243088B4231D303098B
:100480008B421CD3030A8B4201D394463FE0C3093D
:100490008B4201D3CB01C01A524183098B4201D355
:1004A0008B01C01A524143098B4201D34B01C01A40
:1004B000524103098B4201D30B01C01A5241C308B8
:1004C0008B4201D3CB00C01A524183088B4201D327
:1004D0008B00C01A524143088B4201D34B00C01A13
:1004E0005241411A00D201465241104670475DE028
:1004F000CA0F00D04942031000D3404253409C46EB
:10050000002203098B422DD3030A8B4212D38901A7
:10051000FC2212BA030A8B420CD3890192118B423E
:1005200008D3890192118B4204D389013AD09211E8
:1005300000E08909C3098B4201D3CB01C01A5241A3
:1005400083098B4201D38B01C01A524143098B426C
:1005500001D34B01C01A524103098B4201D30B0155
:10056000C01A5241C3088B4201D3CB00C01A52417A
:1005700083088B4201D38B00C01A5241D9D2430861
:100580008B4201D34B00C01A5241411A00D201469E
:100590005241104663465B1001D34042002B00D508
:1005A0004942704763465B1000D3404201B505499C
:1005B000002802DC491C084000E00846C046C0464E
:1005C00002BD00BFFFFFFF7F70477047704700000C
:1005D000F0B50C46871A9C410D46861A9D4103D200
:1005E000C01BA141D21963410D0D1F0DC94EEC1B5B
:1005F000AE435CD07F057F0D0026002F51D02D0526
:10060000AC46A943DD020123ED0A1B051D4320234F
:100610001B1B24D41746E740381871412F46E7408A
:10062000CC199D402818314661410C0D27D16144F9
:100630009A4013D50023401C594152000ED1400866
:10064000400001224B005205D34207D3052040074A
:10065000C14201D5B04900E0B0493046F0BD6B0061
:10066000002A00D001229A181F23203C1B1B01D511
:10067000002302E0E540281871410C0DD7D0012479
:1006800024050919C407CD0740084908E40F284389
:100690006144002CD5D00024401C61419A40D0D147
:1006A000CDE76A05520DD9D1C90FC907D5E79C4DD1
:1006B0004E00002801D0012400E0002434195F001E
:1006C000002A01D0012600E00026BE19954FAC4259
:1006D0000CD8AE420AD8B44206D001256D05EC42D2
:1006E000BCD010461946F0BD9942FCD000203946D6
:1006F000F0BDF0B51FB40C460F46811A9F41254648
:10070000861A9D4106D20125ED076F40401ABC4173
:1007100052187B41210D1E0D8D1BAC467D4D8D4326
:100720007ED075056D0D7CD00D05AE46AC431B0328
:100730001B0B794D52429D41202366469B1B14D3CF
:100740001746F740381800260090744160462F463F
:100750000741E41900989D402818664116D4714657
:1007600071189A4025D5012320E093182A466A4142
:100770005200002B00D0521C1E23203E9B1B002B3E
:1007800061DD3541EE1728186641E8D5001876413D
:100790005B1C9A4000D3401C4B05F3181524E34022
:1007A00010D3002B52D071467118D30FC01802D34A
:1007B000491C05B0F0BD0123DB079A42F9D140087E
:1007C0004000F6E701225205B21801D1002853D0AB
:1007D0000123CC0ADB029943891E002A08D1020CAE
:1007E00003D0020C0004103902E002460020203938
:1007F0000023550B05D112020823550B01D15201DC
:100800000D23550C01D112011B1DD50C01D19200F5
:100810009B1C150D01D152005B1C2025EE1A01E036
:100820002CE022E00546F54015439840CA1AE1073E
:1008300069181305C918002ABBDA032040070818F5
:10084000C10FC9070FE071466118B2E7F107400810
:100850000843711071444A000CD001235B059A4291
:10086000A7D2C90FC9070020A3E74905490D26D122
:10087000002001E00028F4D100219AE7284D66000D
:10088000002801D0012100E0002171185F00002A3A
:1008900001D0012600E00026BE19224FA94210D83F
:1008A000AE420ED8B14208D001256D05E94206D00E
:1008B0001946A802414010467BE79C4201D02146E0
:1008C00077E70020394674E710B50C465C4005D543
:1008D0000124E4076340FFF70CFF10BDFFF778FE2B
:1008E00010BD30B40C465C4004D50124E4076340DD
:1008F00030BC6DE630BCFCE670B50124E407614015
:100900000D465D4002D4FFF763FE70BD6340FFF704
:10091000F0FE70BDFF0700000000F0FF0000F07F58
:100920000000E0FF0000F87FF0B5F94D0C091E094A
:100930002C402E402F468BB0A7437DD0B543FCD032
:10094000002E7AD0002CFCD00D465D40ED0F2543E3
:10095000AC1BFF25AD0464190894C502440DC902FF
:100960002143500DDC0204430120C007014304432E
:10097000D2020191200C110C00958C4601042346F3
:100980008B430A9161460904E24D8A430991010AA9
:100990007D4449198039097805464D4301266D1873
:1009A000F605751B6943C90C640B891C4C4364181C
:1009B000B5012C1B250C2E04B4434C434D43210C94
:1009C000691889090591009DE90701D00121C9072E
:1009D00004912C4601996708CD072F434C08059DCB
:1009E000E10B4D432D0C29466646754302950D4695
:1009F00045432E46029D7D1BB44100950D465D4347
:100A000001942C0C2F040D465543AE462D0C3D434E
:100A1000029503947546049C2D04641B049406D22D
:100A2000029C039D641C002675410395029401AC51
:100A300070CC009F7D1B01E03EE162E1B4410904FE
:100A40000095079101940599A4086143090C0C468F
:100A50004443650BE7040C4666467443A646640BA4
:100A60003C43039502947446049DE4042C1B0494B7
:100A700006D2029C039D641C0026754103950294D6
:100A800001AC70CC009F7D1BB44101940C465C43CB
:100A90000095650FE7000C465443A646640F3C439F
:100AA000039502947446049DE4002C1B049406D222
:100AB000029C039D641C002675410395029401ACC1
:100AC00070CC009F7D1BB441AE09AF06049DC900E8
:100AD000AD092F43049DA406AD060495079D34433C
:100AE00069180791059DE10B4D432D0C294666467B
:100AF000754302950D4645432E46029D7D1BB4412C
:100B000000950D465D4301942C0C2F040D46554372
:100B1000AE462D0C3D43029503947546049C2D046E
:100B2000641B049406D2029C039D641C002675413C
:100B30000395029401AC70CC009F7D1BB4410194DD
:100B40008C050694079C890A611800950791019C01
:100B50000599A4086143090C0D464543680BEF0451
:100B60000D46644665436C0B3C43049FED047D1BBE
:100B7000AC4602D20025641C6841009E019D371BD3
:100B800085410846584301950C46460FC50054431D
:100B9000600F28436546E4002C1B02D20025401C50
:100BA0006E41019D3F1AB5412846BD098006284384
:100BB0008446A009BF064E020699A406761807438C
:100BC000079D002068410A99079019430020099B5E
:100BD00000906046FF1913434041E20F64003A431E
:100BE000A4460446D71A8C41A04203D901200090A4
:100BF00020463A46C70F941840416246D20F22431E
:100C0000644664000494009CBE466400D71AA4465F
:100C1000044602978C417746002F01D1A04204D9A7
:100C20006046401C8446029A2046C40FA64694188B
:100C30004041049A0546D20F224364466400D31A09
:100C40008D417146002901D1A84202D928461A4691
:100C5000641C10430122002800D0164361020020CA
:100C6000079B891904465C410223002C02DB4918CA
:100C700013466441089DCE0A2D145D194B05670586
:100C8000E10A2C050D1908993E43C9076940002B5C
:100C900008D0934006D30022761C5141002B01D18D
:100CA000760876001C4A002D43DB154241D0AA434A
:100CB0003FD030460BB0F0BD06180D464D41174CE5
:100CC0007642AC411AD395181C465C41134A6D42DA
:100CD000A24113D3012252054C00D4420AD15C0038
:100CE000D4420BD04B4002D592021143E2E74900B7
:100CF0004908DFE75940C90FC90718E00020084933
:100D0000D8E7054801420DD10342F7D0F2E70000D1
:100D10000000FF07D06500000000F07F0000E0FF4A
:100D20000000F87F114859400143C01241400020A3
:100D3000C0E70123089A9B069A4205DC032252076A
:100D40008918C90FC907B5E7052252078918074A4C
:100D50001143D2125140ADE770B515461C4602460C
:100D60000B4628462146FFF7DFFD70BDFFFFFF7FE2
:100D70001F22030C02D10F22000402D0030E03D065
:100D800004E00020014670470002083A030F01D139
:100D90000001121F830F01D18000921E002801DB89
:100DA0004000521E120551184205C012411810464B
:100DB0007047C10FC90700D040420122920711437A
:100DC000D6E701218907D3E7F0B58B4C0F092546FB
:100DD00089B0BD437BD01D092646AE43FAD00E46EE
:100DE0005E402740F60F3E43254071D0240121424A
:100DF000FBD0FF24AD19A4042D1B039501252D055F
:100E0000DB02DB0AC9022B43C90A29431E0109017F
:100E1000040F130F050121431701880B820391432F
:100E20002D098C46A90B1E438A039543B30B9A03E5
:100E300096433F09BA0B9403A74302962E467E437E
:100E40000497B6464E19D7190C4601965443059798
:100E50007E43371B7646BF1B3601B646BE0B36199E
:100E600000967646BC043719009C01D3641C00949C
:100E70006400002F01D001263443029E049F754375
:100E800066467E430496760034196E003419009449
:100E9000029C019E1C196643751BAE46069465466E
:100EA0004519059C05956C43594375460891691A87
:100EB0000191049E01465143A41B0491611A009CB8
:100EC0000791E10605D061090122114302E072E0B9
:100ED0006EE06109089D00272C0A2D066918049D03
:100EE0007C412A0A2D066918019D6241AC0DAD02B4
:100EF0006D185441079A910D920255196141029A59
:100F0000644658435443069B059A5A43121A131BCE
:100F10009A0E9B015B187A41010B0005C3185141E1
:100F2000220A200644195A419A4200D2491C012043
:100F30004002814203D315230226F64302E0142324
:100F40000326F6432020C51AA9401746AF40DA40D1
:100F50000A4320460399D8400914731819055118FB
:100F6000039A3843D2075140AC4009D00122944043
:100F700006D30022401C5141002C01D14008400002
:100F80001E4A934212D3012203989206904207DB35
:100F90000520400709181A480143C012414004E0E7
:100FA000032040070818C10FC907002009B0F0BD91
:100FB0000020F107FAE705180C464C4111486D4234
:100FC000A04115D394181A465A410E4864429041E4
:100FD0000ED301204A004005824209D35A008242C2
:100FE00006D35940C90F084AC90700201143DDE75D
:100FF00000200649DAE700000000FF07FE070000B6
:10100000FFFFFF7F0000E0FF0000F07F0000F87F9F
:1010100070B5044685690068C10601D5302600E038
:101020002026C00707D070BD62683046A16890478F
:10103000206A401C20626D1EF6D570BD70B5044656
:1010400085690078C00707D170BD6268A16820205B
:101050009047206A401C20626D1EF6D570BD09685D
:101060004A0501D540B27047C905FCD500B27047AA
:1010700009684A0501D5C0B27047C905FCD580B2E0
:10108000704770B50C460546012A05D028788006C1
:1010900000D5EA69002302E0012305E05B1C9342CE
:1010A00002D2E05C0028F9D1A869E618C01AA8614C
:1010B000286AC01828622846FFF7AAFF04E06A6879
:1010C0002078A968641C9047B442F8D32846FFF7FB
:1010D000B5FF70BDF7B5002575291068009914A6F5
:1010E00011D0FFF7BCFF002802DA404211A608E049
:1010F000009909688A0701D50FA602E0490704D5BF
:101100000EA6012501E0FFF7B3FF009F002424375E
:1011100004E000F080FE30313955641C0028F8D11D
:101120002B4632462146009800F057FAFEBD0000DB
:10113000000000002D0000002B0000002000000037
:1011400011680268006A530501D5087009E0D305EB
:1011500001D5088005E0130602D5C21705C100E0DD
:10116000086001207047000001694A1C026108788C
:10117000704700B58FB00291002105910549019398
:101180007944039111460490684600F025F90FB0A8
:1011900000BD0000E5FFFFFF0A681070521C0A60E6
:1011A00070470000F7B50446154686B02B487844D2
:1011B000002703C83E460090019111E007986A4657
:1011C0007100415A02A800F005FE411C07D02178A9
:1011D000890603D5E269391891420ED83F18761C6A
:1011E0002078800602D5E069B84206DDAE42E5DB34
:1011F00007987100405A0028E0D1A069C01BA06187
:101200002046FFF705FF154878445A3803C8009078
:101210000020019116E041006A460798415A02A851
:1012200000F0D8FD0590401C0AD0002505E062685A
:1012300002A8A168405D90476D1C05988542F6D3D1
:101240000498401CB0420490E5DB206AC01920627B
:101250002046FFF7F3FE09B0F0BD0000325E00004B
:10126000F7B5D21D0025D20815A6D200F52905CA6A
:1012700011D0002A05DA00214042914111A60A4608
:1012800008E0009909688B0701D50FA602E049071D
:1012900001D50EA601251146009F0024243704E045
:1012A00000F05EF930323A55641C02460A43F7D129
:1012B0002B4632462146009800F08FF9FEBD000013
:1012C000000000002D0000002B00000020000000A6
:1012D00070B504460021243408E05507D2086D0F8C
:1012E000303565545D072A43DB08491C15461D430C
:1012F000F3D10468002310A2250708D520252C402F
:101300000C4304D0C46901230CA2641EC46100F024
:1013100064F970BD10B5044621461068FFF7A8FEB9
:10132000002302462046FFF7D3FF10BDD21DD1088F
:10133000C9000CC9CCE7000000000000300000002C
:10134000F8B50F460188090502D5224C7C4402E01D
:10135000204C7C440E3405460021243508E0160755
:101360001209360FA65D6E541E0732431B09491C35
:1013700016461E43F3D1224604780023240705D5E0
:10138000702F06D0002901D00223113200F025F978
:10139000F8BD01231032F9E770B504460D46214629
:1013A0001068FFF765FE0023024629462046FFF736
:1013B000C7FF70BDD21DD308DB000CCBC0E730B433
:1013C000036820241268234303600823C36130BCF0
:1013D0000023B5E79C5C0000F3B50446002081B013
:1013E00020622046E1688847002872D0252802D074
:1013F0006268A168ABE0594F00267F442046E1684F
:1014000088472028054608DB312D06D27819203878
:101410000078002801D00643F0E7B00701D504208A
:1014200086430020E0610746A0612A2D0AD02846A5
:1014300005F054FD002827D0B8000019303D009079
:10144000856119E00298BA00121902C891610290F0
:101450002046E1688847012F054617D1E06900283A
:101460001FDA202086431CE000980A218069484347
:1014700000994019303888612046E1688847054660
:1014800005F02CFD0028EFD1012F0AD02E2D08D118
:101490002046E16888470546202006437F1C022F2E
:1014A000C3DBA069002803DA4042A06101200643A3
:1014B000F00701D0102086436C2D0BD0682D09D089
:1014C0004C2D3CD06A2D38D0742D38D07A2D36D0A2
:1014D00016E040E0E1682F4620468847B8420546BE
:1014E00009D16C2F29D001208002E16806432046F3
:1014F0008847054604E06C2F1DD0FF2001300643CD
:10150000002D28D028464138192803D80120C002D0
:1015100006432035204626602946029A1646FEF7E5
:101520001BFE002810D001280BD0F61DF008C000CB
:101530000830029055E74020E1E78020D5E7002001
:10154000D3E7361D02964CE762682846A1689047AB
:10155000206A401C44E7206AFEBD0000165C0000C3
:101560000B4670B5024689078008084319469D0856
:10157000141AA94125090807054308092C194841EF
:10158000250A01060D43010A2C194141200C0D04C6
:1015900028430D0C00194D41002140194D41C00850
:1015A00069070843E908840F8D0025438400241847
:1015B0004D4124196D41121BAB4107E00925ED4354
:1015C0002C11521963410024401C61411C460A251C
:1015D0000026551BB441F1D270BDFFB504460D463F
:1015E00081B0243000902168880604D51022E0697B
:1015F0009143216000E00120A84201DD471B00E08B
:1016000000270498A1697A191018081AA061207897
:10161000C00602D42046FFF7FBFC002608E0039832
:101620006268A168805D9047206A401C761C206239
:1016300004988642F3DB2078C0060AD52046FFF7DF
:10164000E7FC06E06268A16830209047206A401CF1
:10165000206238467F1E0028F4DC07E000986268AC
:10166000A168405D9047206A401C206228466D1E9C
:101670000028F3DC2046FFF7E1FC2078000602D5C5
:10168000022005B0F0BD0120FBE70000FFB50C46CD
:101690001E468FB003CA089009914F007D0D00D1FE
:1016A0006D1E002108460020C0460321099A8905C5
:1016B0000840002A03DA8200801840080840800DA4
:1016C00001280A9002DD0020C0430A9008980743D1
:1016D0000DD0F048F04928184843071418980028FE
:1016E0001DD07542291E1DDD0A9842421BE0189844
:1016F000012802D00020302104E00020F24305E060
:101700002154401CB042FBDB30460022189B0021D4
:1017100021540F998B600A60486013B0F0BDBD1B67
:101720006D1CDFE70A9A002900DA69420BA800F075
:10173000FBFB0BAB07CB03AB07C30899099800F081
:101740005FFC6B4607C30146D4480918002D009181
:101750000BDDD24903980A9A49424018002303A995
:101760000390684600F0BCFE08E003990A9A002343
:10177000081803A90390684600F05CFE6B4607C397
:101780000004000C03D00020C043410800E01046D4
:10179000189A002A03D00022009215461EE0751EFA
:1017A00005D4FFF7DDFE303262556D1EF9D50122FA
:1017B0000843079602D000227F1C04E020783028DE
:1017C00001D100227F1E002A069787D01EE0112D2E
:1017D00007DAFFF7C5FE303262556D1C02460A4338
:1017E000F5D1084303D00098002819D00EE000215D
:1017F000681E05E0235C625C63542254401E491C51
:101800008142F7DBA81B401E07950690079A18999E
:101810000020A0540F98079B069A81600CC07CE7BB
:1018200011260020189059E7D21DF0B50D46044648
:10183000D10893B0C90003C90C900D9105F038FB95
:1018400002460D98C00F01D02D2007E020688107C7
:1018500001D52B2002E04007C00F4001032A0F9062
:1018600001D0072A05DB03462946204600F018FB75
:101870000EE12078800601D5E76900E006272846BA
:10188000652D04D0662814D0672D69D12DE0002085
:10189000112F009001DB112300E07B1C0CAA03A98F
:1018A00010A8FFF7F3FE1199002610987D1C0E91E9
:1018B00042E001203B460CAAC0070B90012000909B
:1018C00003A910A8FFF7E2FE119D129810990026B7
:1018D00000280E9501D1781C0D18781B02D44642C1
:1018E0007D1C761EE81B00903AE0012F00DA0127EC
:1018F0000020112F009001DD112300E03B460CAACF
:1019000003A910A8FFF7C2FE11993D4610980026C2
:101910000E91217809070BD40E99A94200DA0D46E1
:1019200003A9012D04DD4A19203AD27F302A06D0BE
:10193000B84201DA011D04DA012100910FE06D1EA9
:10194000EFE7002802DC86192D1A03E0411CA942AA
:1019500000DD0D46801B401C00900120C0070B904D
:101960002078000705D40098A84202DB0020C0437D
:10197000009069460020C8720B98012102AF03371E
:10198000C907884225D0022010902B2011900B9877
:1019900000280BDA40420B902D20119006E00B98A6
:1019A00000F039FA30317F1E0B9039701099481EC3
:1019B00000291090F3DC0B980028F0D111987F1EBD
:1019C00038702088000501D5452000E065207F1E85
:1019D000387001A8C01BC01D0B900F98002800D0C4
:1019E000012041190098C01709180B980818A1691F
:1019F000081A401EA0612078C00602D42046FFF7D6
:101A000007FB0F98002805D06268A1689047206AFC
:101A1000401C20622078C00625D52046FFF7F8FA42
:101A200021E0002E07DB0E98B04204DD03A86268B7
:101A3000805DA16802E06268A16830209047206A5A
:101A4000761C401C20620098401E002800900AD19D
:101A500000F022FAC06862680168405CA1689047A3
:101A6000206A401C206228466D1E0028D9DC07E051
:101A700062683878A1687F1C9047206A401C206209
:101A80000B99481E00290B90F2DC2046FFF7D6FA8E
:101A9000032042E601FCFFFF104D0000E1DFFFFFE5
:101AA000D21DF0B504460D46D0088DB0C000466882
:101AB00007683146384605F0FBF90246F00F01D0C1
:101AC0002D2307E02068810701D52B2302E0400782
:101AD000C00F43016846002B037001D0012000E0D5
:101AE0000020032A0A9001D0072A04DB2946204659
:101AF00000F0D6F92DE12078800601D40D2500E014
:101B0000E5697000400D0D2D01904BDA300D00217C
:101B10000B9008460020C046032189050840002E8E
:101B200005DA82008018C20F101840100840801596
:101B3000012801DD0020C043A9000023182906D395
:101B40009C460A460123183A1B07D34003E00122B2
:101B50001205CA4094460C31202902D33A46203956
:101B600000E032468A40002802DD002A06D119E052
:101B7000002817D10121C9078A4213D319466346A9
:101B80007F185E41002806D10120C007824202D1A1
:101B9000084687439E430B98310D814202D001983D
:101BA000401C01902088000502D57149794402E06B
:101BB0006F49794419396B460A9830221A540A98A9
:101BC0000A7C401C1A54401C0A900198002801DC31
:101BD000302000E031201872019A0120002A02D042
:101BE000644BD21804E072003A4302D0614A521C9E
:101BF0000192002D02DC2278120703D56A462E20BE
:101C0000507202200022864694460CE032033601D0
:101C1000120F6D1E8B5C02AA13546246521C401CAC
:101C20009446052A01DA002DF0DC002202AE08E01D
:101C30003B0F3F01CB5C521C6D1E3354401C082AE5
:101C400001DA002DF4DC23689A0601D511E0401E6C
:101C5000704504DD3218203AD27F302AF7D00028B0
:101C600007DD3218203AD27F2E2A02D11A0700D47B
:101C7000401E002D03DD3E223254401C6D1E497C67
:101C800031540199401C002906DA2D21471C31549A
:101C900001984042019003E02B21471C31540198E8
:101CA0007D21C900884206DBFEF7E2FB3030F055AB
:101CB0007F1C019101E0642808DB01986421FEF794
:101CC000D7FB3030F0557F1C019101E00A2806DB7C
:101CD00001980A21FEF7CCFB3030F0557F1C0198AB
:101CE0000A21FEF7C5FB3031F1550A98A1697F1C26
:101CF0007A191018081AA0612078C00602D420466C
:101D0000FFF786F9216A6E460A980818206204E0F7
:101D100062683078A168761C90470A98401E0A9045
:101D2000401CF5D12078C00602D52046FFF770F997
:101D300002AE09E03078761C3E280DD06268A168BA
:101D40009047206A401C20627F1EF3D22046FFF796
:101D500075F90DB00320F0BD206A4019206203E040
:101D60006268A168302090476D1EEDD3F8E700004F
:101D70008854000001FCFFFF10B54369002B02D01E
:101D8000C046C04601E0FFF77CF9012010BD127883
:101D9000014624310A7000224A700122ECE71168E2
:101DA0000022D243E8E710B54369002B02D0C046B9
:101DB000C04601E0FFF7F6F9012010BD1288014688
:101DC000243182840022C2840122ECE711680022BF
:101DD000D243E8E7F8B516460C46054600F054F83D
:101DE0000368FF200230C05C012807D0FF2C0FD809
:101DF000185D00280CD001202C70F8BDFF3332464E
:101E0000214608331868C71828460023B847F8BD8C
:101E10000020C043F8BD01468008081A02091018C6
:101E2000020A1018020C1018C00882001218520082
:101E3000891A01E0401C0A390A29FBD270470000C8
:101E400000487047100000207546FFF7F9FFAE46C6
:101E5000050069465346C008C000854618B020B545
:101E6000FEF732FA60BCB64600260027C0C5C0C5E2
:101E7000C0C5C0C5C0C5C0C5C0C5C0C5403D490876
:101E800049008D467047000010B500F005F8001DB0
:101E900010BD00BF85500000004870473000002092
:101EA000F8B51F46044601230068DB0203260146FD
:101EB0001840072A05DB002801D017A506E017A562
:101EC00004E0002801D016A500E016A510208143EB
:101ED0002160A069C01E002FA06101D0401EA0613A
:101EE0002046FFF795F8002F09D038466268A168B0
:101EF0009047206A401C2062C01C206206E0206AD5
:101F0000FAE762682878A1686D1C9047761EF8D2BF
:101F10002046FFF793F8F8BD4E414E006E616E000B
:101F2000494E4600696E6600F7B516468AB03348DA
:101F300078446C4603467C33C06F5A689B680DC476
:101F40002E487844763003AC0DC80DC43720C0014C
:101F5000081837211B30FEF78BFA05460C46803DEA
:101F60001B3C02D56442012000E0002000270990BC
:101F700010E0E0070CD00C20204978437944324629
:101F80004C3941186846012300F054FA6B4607C3E8
:101F900064107F1C002CECD1184F7F442E3F16E0BC
:101FA000E80712D02001C0190EC8069108930792C5
:101FB0000068F04201D1981908903246012306A921
:101FC00003A800F037FA03AB07C36D10641C002DA3
:101FD000E6D10998002806D032466946012303A8B5
:101FE00000F07EFA05E001233246694603A800F0BE
:101FF00021FA0A9B07C30DB0F0BD00001851000084
:10200000034640000A4610B5400D0BD00121C90718
:102010000F24A40200191C0364082143540D21431A
:10202000D20207E000210120F2E7D40F490021434A
:102030005200401E0029F8DADB0FDB07184310BD01
:10204000FFB50D46144685B04868516804F018FF86
:1020500000910190A868A16804F012FF029103901A
:10206000A868616804F00CFF029A1218824202927A
:1020700001D2012000E00020019A0B18D21800289C
:10208000019202D08A4202D903E08A4201D20120A1
:1020900000E000200099081800906868A16804F02A
:1020A000EFFE029A12188242029201D2012000E051
:1020B0000020019A0B18D2180028019202D08A42FF
:1020C00002D903E08A4201D2012000E000200099F9
:1020D0000818009028682168400049004008490815
:1020E0004018FA49471814E001994000C90F084305
:1020F0000090019802994000C90F0843019002988E
:1021000003994000C90F08430290039840007F1EC6
:10211000039000980028E7DA0898002801D0EC4ED8
:1021200000E00026B74201DA012000E0002000288C
:1021300004902AD0F71BF806C00E15D0029B202170
:10214000091A039A8B401A430392029A019BC240D8
:102150008B401A430292019A009BC2408B40009927
:102160001A430192C14000917B110DD06F460320AC
:10217000C11A03D500218200B95003E08A00810012
:10218000BA587A50401EF3D5374603980299002872
:1021900000D00120014308980291002808460CD085
:1021A000002800D001200199019A49050843012126
:1021B000D20AC902D202019200E001210E9B012243
:1021C000D207012B02D0002B03D013E0002807D147
:1021D00020E0904204D890420CD1019B0B4209D0E0
:1021E000019B5918019105D10099491C009101D119
:1021F0007F1C009200280DD0102108460020C04608
:102200000498002806D00F98002803D0082108461B
:102210000020C04628682168019B009A4840C10FF1
:102220000598C90739430EC009B0F0BDFFB587B0A6
:10223000099A089808995368926840688968964690
:102240000022039317469446089A12685300099A8D
:102250005B081268520052089A1A9E4BD4180A9AC8
:10226000002A01D0352200E04022069200220123FC
:1022700015460492DB07059324E0002D05D1754631
:102280000346039E4D1BB34109D375466646039B27
:10229000491B049D9841059B7519AC465F416346F7
:1022A0003B4308D0059B049EDD0776082E435B0860
:1022B0000496059301E0521E641EC50FED074918F0
:1022C0004041521C069B9A42D7DB002D04D1754633
:1022D000039A6B1A824101D203200CE0039A0B4649
:1022E0006B404240134303D0014303D0012002E07E
:1022F000022000E000206146019100210097029138
:102300000A99002905D0614640020143704B0191B2
:1023100002E08007002302909C4201DA012000E0E5
:10232000002007003AD01A1BD006C00E15D0029D1F
:102330002021019C091AC5408C402543029C8C40F9
:1023400000D001242543019C0295009DC4408D408E
:1023500000992C430194C140009154111DD06D4649
:102360000221002202290CD10320001B07E00028D3
:1023700004DB8600AE59002E00D00122401C032849
:10238000F5DB081B02D588002A5004E0800028589D
:1023900010438A00A850491EE3D51C460A9800281D
:1023A00002980CD0002800D001200199019A49051B
:1023B00008430121D20AC902D202019200E00121A0
:1023C000109B0122D207012B02D0002B03D013E077
:1023D000002807D11FE0904204D890420CD1019B05
:1023E0000B4209D0019B5918019105D10099491C54
:1023F000009101D1641C009200280CD010210846E5
:102400000020C046002F06D01198002803D00821D4
:1024100008460020C04608980999019A009B006868
:1024200009684840C10F0798C907214382600AC064
:102430000BB0F0BD00B585B0019300920A4601468D
:10244000002302A8FFF7FCFD02A807C805B000BDE5
:10245000FFB50A461F4685B00799019301230091F5
:10246000014602A8FFF7ECFD02990398049ECA0FEB
:102470004900D20700920F22490892028C1A0021CB
:10248000002800DB0C46450013486D08844214D335
:10249000079A002A04DA441E0026104DF64302E093
:1024A00004460D460E46102108460020C046002F67
:1024B00003D0042108460020C0462005E90A08434D
:1024C000009908436905F20A1143ADE602C0FFFF17
:1024D000013C0000FF3F0000FF070000FFFFFF7FFF
:1024E00000B585B0019300920A460146002302A878
:1024F000FFF79CFE02A807C8A8E7FFB50A461F46DB
:1025000085B00799019301230091014602A8FFF7C6
:102510008DFE02990398049ECA0F4900D2070092CB
:102520000F22490892028C1A0021002800DB0C4679
:10253000450011486D08844214D3079A002A04DA32
:10254000441E00260D4DF64302E004460D460E469D
:10255000102108460020C046002F03D00421084661
:102560000020C0462005E90A084300990843690590
:10257000F20A114358E60000FF070000FFFFFF7F4B
:1025800010B50446C046C0462046FDF771FE10BD9A
:1025900001491820ABBEFEE7260002007047B0B527
:1025A0000146806A836D826D5024234206D0D20694
:1025B00021D4006D426B08469047B0BD01214B020B
:1025C0001A4382650268D3681B059B0F1FD1837E67
:1025D000002B1CD113681B0719D593685B070DD41A
:1025E0000346583354680C25AC435460FF2402342E
:1025F0001A68A24309E000F0FBFAB0BD826D202307
:102600001343836503465C33C26D0A431A6000F0CE
:10261000EDFAB0BD80B5806A816D40220A438265C3
:10262000C16D04220A43C26500F0E2FA80BD80B5A4
:10263000806A00F0DCFA80BD70B5054600688168EC
:1026400082680024D20726D00222114023D181685B
:1026500005220A40012A16D18168CA4A0A40911C03
:1026600081600321016000F0D5FE0646286880687D
:10267000C00710D000F0CEFE801B0328F6D32868D8
:102680008068C007F2D0A86D10210143A965E86DEC
:1026900001242043E865204670BDC046F8B50546D4
:1026A0000024009400688168C9071AD18168B54A7E
:1026B0002F32114208D0A86D10210143A965E86DA1
:1026C00001242043E8650CE08168AE4A11400127EF
:1026D00039438160AD480068000204D4687E012857
:1026E0000ED12046F8BD134800681349FDF7B6FE29
:1026F000401C009000980028F0D00098401EF8E799
:1027000000F088FE064628680168C907E9D181689B
:10271000C90704D181689B4A11403943816000F0A8
:1027200079FE801B0328EED328680068C007EAD131
:10273000C1E7C04608000020400D030080B50248F4
:1027400000F078FC80BDC0463805002080B5034805
:1027500000F070FC024800F06DFC80BDF005002028
:102760009405002010B504460A48216C03229143C9
:10277000091880306164A0642168FC200840083892
:102780001421FDF76BFE1F21014001208840E06409
:1027900010BDC0460008024010B5084942683F23FA
:1027A00013405A1E0323134001249C4092005218E8
:1027B000403102654165846510BDC0460009024094
:1027C00070B5846CC56C6560046D002C02D0446DDE
:1027D000856D6560046C1C2525400124AC40084DC6
:1027E0002E6826432E6004686360806810281346B4
:1027F00000D00B46A360102800D01146E16070BDE8
:102800000400024010B51020044CA0472020A0472F
:102810004020A0478020A04710BDC04635320008A8
:10282000EFF3108072B6FEE7F0B589B004460025DC
:1028300008955420205C012801D102204BE0274656
:1028400054370120069038702046FFF7F5FE2668C1
:10285000B268A16DD2072FD1049702908122520055
:102860009143891CA165F168F268444B1340F36001
:102870004348084001903046B4300590414B4249EE
:102880002F460395082F28D0B2681A4018461833EF
:102890001343B360B268002A06D5089A521C089206
:1028A000089A8A42F6D30CE0059A12687F231340F7
:1028B0005D197F1C0346E5E7102211433D70A165B9
:1028C00009E0002004990870A06D10210143022046
:1028D0008143A165069809B0F0BDB1681F46194053
:1028E000012006900143B160EB083169890F039D17
:1028F00014D10F218904B94A12680A40910C0729A2
:102900000CD3C91E01228A400792079949080791F2
:102910000799002902D00799491EF8E70598016830
:102920007F22914319430160B1683940022739433E
:10293000B16000F06FFD064620688168C90712D0BB
:1029400000F068FD801B0328F6D320688068C0076C
:10295000F2D0A06D10210143A165E06D06990843F6
:10296000E0650846B7E7C168019A1143C160A06DF0
:1029700001210143B9430298049F9FE7FC7FFFFFB9
:1029800003800000E8FFFF7F00F2020008270140FB
:10299000F0B589B0002508955422825C012A01D146
:1029A0000224E1E00646543601243470026893683C
:1029B0005B0711D404694B68022B12D10420044335
:1029C0008448844250D18248C0430B68D9430143B4
:1029D000906A0840906248E0816D20220A43826537
:1029E000C1E00796069304263443794B794FBC42E5
:1029F0004BD10F683B40906A18439062380253698C
:102A0000834389680140744808401843506100249A
:102A1000002F01D4079EA6E00126FD483B4607682B
:102A200007208205394611406D480293834273D1D5
:102A3000F0053B4603406FD1F54F3B689343194384
:102A400001433960ED480068ED49FDF707FD0C21B1
:102A500041430C310891079E0898002800D182E07C
:102A60000898401E0890F7E70B680024002B7AD5E1
:102A7000E74801685B4A934269D05B4A934269D058
:102A8000574A93426FD1052262E0029605951F27AF
:102A9000069C27400F2500950397BD40046E0195C5
:102AA000AC4304940F681F424DD0FB07059D2C4694
:102AB00062D1BB075BD47B075BD43B075BD4FB06CF
:102AC000029C59D4BB066AD47B066AD43B066AD4FE
:102AD000FB056AD40297BB0569D4029B5B0568D4E9
:102AE000029B1B0567D4029BDB0466D4029B9B04FC
:102AF00065D4029B5B0464D4029F3B04009C059D4B
:102B00003AD4FB0360D4029B9B035FD4029F7B03F8
:102B1000DB1712241C4018E03248029B834202D18A
:102B20003006814208D33048029B834200D071E7CF
:102B3000B005074000D06DE7B54F3B68934319439C
:102B40000143396066E77B00DC0E059D14E003223B
:102B5000920501E00322D205114007229205036885
:102B60009343591801603570204609B0F0BD012427
:102B700002E0022400E00324039EB440049B1C43B3
:102B80000466069B9B08C069984200D836E7019806
:102B9000C043936A0340B800000FB0402CE70524FF
:102BA000EAE70624E8E70724E6E70824E4E709243F
:102BB00008E00A2406E00B2404E00C2402E00D24C3
:102BC00000E00E24029FC0E71024FBE71124F9E780
:102BD000FFFF07000400008000FFFF0708270140F7
:102BE000001000B0004000B8002000B470477047EB
:102BF00070470000F0B587B0044600200690002C16
:102C00005DD00590A06D002807D12546543520469B
:102C100000F000F900202870E06501273D072668D4
:102C2000B068C00012D4B068734901402943B16054
:102C3000724800687249FDF711FC4000801C069044
:102C40000698002802D00698401EF8E7B06828428F
:102C500008D1A06D10210143A165E06D012105910E
:102C60000843E065B06804210140A26D10252A40A8
:102C70005118A16D25D163480140891CA165B16837
:102C8000C90778D1039527462037216B4A1E914109
:102C90000B03A168227E92030A43617EC90311439C
:102CA000A27E50030843E56805431D430120C30786
:102CB000216900290490029307DA994306E0012074
:102CC00098E02943A165384694E041050D43387BDF
:102CD00043002B43387801280DD1002A08D0A06D7D
:102CE00020210143A165E06D04990843E06502E0FD
:102CF000049800040343626A002A06D0072080017A
:102D00000240A16A1143194300E01946F0683E4AA7
:102D100002400A43F2600320820763681D461540A3
:102D2000E16C387F01280ED1206C0090676CA06C9C
:102D3000019000980743019807432F430F430498DD
:102D400007433D4600E00D433069304901402943C7
:102D5000316102988342039D0DD093420BD00498B9
:102D60008007834207D00F208004034028490A6867
:102D70008243D0180860706907229043676B38431C
:102D80007061706970218843A16B09010143716111
:102D9000216901235805814206D0002913D1194920
:102DA000F331B06A08430DE0B06AE06980001C307E
:102DB0001C210140134804920246F3328A40206EDF
:102DC0001043049AB06270691040B84209D10020E3
:102DD000E065A06D0121014302208143A1650598B2
:102DE00008E0A06D284302218843A065E06D1843E8
:102DF000E065184607B0F0BDE8FFFF6F080000204F
:102E0000400D0300FDFEFFFF0102DEFF02FCFF1F7D
:102E100008270140F0B587B00446002606960596BF
:102E200000681C49884233D1012738051A49CA680D
:102E30000243CA60CA680240019201980868384398
:102E400008600868384001900496032003900290BF
:102E5000019805200090000702A900F001FA0F4D2B
:102E60002E622020B9023A0280230D4F2F60009F6E
:102E70006F60AE60EE602B616A61A961E86128460F
:102E800000F028F9002801D0FFF7CAFCAC622565E4
:102E900007B0F0BD00240140341002403805002086
:102EA00008000240F8B50E46044600688168022713
:102EB000490740D400925421615C01293BD025464A
:102EC000543501272F70C168C9070BD18168C90724
:102ED00004D08168194A0A40911C8160C1680122AE
:102EE0000A43C2602046FFF7D9FB002823D1A06D1A
:102EF00013490140012000020818A0650020E06588
:102F000021681C220A602870206D0E4A0E4B0F4D5E
:102F1000C562036342634A68102313434B60403128
:102F20003246009B00F02EF9074620688168034A6C
:102F30000A40111D81603846F8BDC046E8FFFF7F9A
:102F4000FEF0FFFF152600082F2600089F25000829
:102F500070B500282AD0014624314A78022A27D1A8
:102F6000046822680E239A432260426C15682E4B37
:102F70001D4015602568012295432560046C1C25C1
:102F800025401446AC40524D2E6826432E60846C7A
:102F9000C56C6560046D002C05D025681D4025605A
:102FA000436D806D58604A70002004E0012070BDC0
:102FB0000422C263012000220A7070BD70B5014670
:102FC00024314A78022A2AD103681A680E24A243BF
:102FD0001A601C68012294431C60446C2568124BE3
:102FE0001D402560046C1C2525401446AC40384D1E
:102FF0002E6826432E60846CC56C6560046D002CC1
:1030000005D025681D402560436D846D5C600024FB
:103010000C704A70816B002904D0884702E00421BB
:10302000C1630124204670BDFFFEFFFF2521405CE7
:1030300070470000F8B5016C1C240C400426334690
:10304000A34023490A1F1768026815683B4201D054
:1030500069071DD4034624330226A6403E4201D010
:10306000A90721D4E740390731D529072FD51168A1
:103070000E25A943116001210A46A240144D2C6877
:1030800014432C60C16300221A705970416B1BE01D
:103090001168890602D41168B14311600C4A1168A5
:1030A00019431160016B0FE01168890605D411689E
:1030B0000A24A14311600121597000211970044AAA
:1030C000116831431160C16A002900D08847F8BDFA
:1030D00004000240FEB500282FD0044601462431EA
:1030E000022002914870266830682449014031600E
:1030F000234830181421FDF7B1F980002064A1683D
:1031000027460C378DCFE5690095256A0195084360
:103110001043184338430099084301990843316824
:10312000014331602046FFF71DFB0126B003A16873
:10313000814204D10020606002E00120FEBD606891
:103140003F210140626C1160A16CE26C4A60401E3C
:10315000032809D82046FFF71FFB206D00210160DE
:10316000606DA16D416003E0002020656065A06591
:103170000020E063029908704E70FEBD0F80FFFFD3
:10318000F8FFFDBFF8B505462420285C012801D1D1
:10319000022436E028462430012404704678012EAB
:1031A00012D1022444700024EC63286807680126C9
:1031B000B74307602846FFF703FB286801682A6BBE
:1031C000002A06D00E2209E0002101708020E86369
:1031D00017E004229143016002680A211143016053
:1031E00031026A6C1368DB0302D513680B4313606A
:1031F0002A6D002A02D013680B4313600168314323
:1032000001602046F8BD0000B0B5044600F002F9A8
:103210000546601C02D004480078041900F0FAF852
:10322000401BA042FAD3B0BD0000002080B502F0E0
:1032300023FF80BDB0B50446074D2868204203D067
:103240002C60204600F00AF86868204203D06C60C9
:103250002046FFF7EBFFB0BD0C180240704700009E
:10326000F0B58AB004905C4A904201D0052000E09D
:10327000032000900023089309931E4603910A68D7
:103280001046F04000D1A5E001240194B440224052
:1032900000D196E002920796032210469840C74359
:1032A0004D682E461640701E01280593069712D8C9
:1032B000049B98683840CA6805998A4002439A601E
:1032C000E806C00F079988405A68A2431C46059B30
:1032D0000243626004E0032E049C01D116461EE006
:1032E000E0680699084003998A689A400243E260C0
:1032F000022E14D11C20089908400F228240079901
:10330000CC08A40004990C19266A964303990A690B
:10331000824032432262049C4D6803262E409E4028
:1033200020680699084030432060A803800F039965
:10333000079E029D45D003203246824327488218CB
:10334000166E05200007049B834208D0254883425F
:1033500007D025488342009F04D1022702E00027BE
:1033600000E0019F1820099B18400F248440A643C9
:103370006032874037431760184800684A68D302B4
:1033800001D5284300E0A843079E144B18605868F5
:10339000930201D5284300E0A843104B5860104821
:1033A0004068930301D5284300E0A843059B0C4CDB
:1033B00060602068D20301D5284300E0A843084A92
:1033C00010609B1C0898001D08900998083009900F
:1033D000761C54E70AB0F0BD000C00500018024003
:1033E00080180240000400500008005000690840A6
:1033F000411E8841704742690B4693430A401104BD
:10340000C91881617047002A01D0182200E02822E3
:1034100081507047014800687047C046100B00207B
:10342000B0B50246034640335C780220202C17D109
:103430001C78012C14D024205870106802680124D4
:10344000A2430260220305689543056002680A43AF
:10345000026001682143016000201870202159702A
:10346000B0BDB0B50246034640335C780220202C44
:1034700017D11C78012C14D02420587010680268D1
:103480000124A24302600F2212020568954309023B
:103490002943016001682143016000201870202148
:1034A0005970B0BD81B007490A6801231A430A6008
:1034B000096819400091009903490A6802430A60AB
:1034C00001B0704740100240000001407047704753
:1034D000F8B5012201688C690B68E50506D51D0663
:1034E00004D51502466C16434664CD61650507D5C3
:1034F0001D0605D59502466C082737434764CD6104
:10350000A40507D51B0605D55202436C02241C43B3
:103510004464CA61416C0B22114201D001F0EEFA01
:10352000F8BD80B502689169436B1268002B00D02A
:10353000984780BD80B50068B849884200D080BDFA
:1035400002F09EF980BDC0464121405C70470000FA
:10355000F8B5002822D00446054640356878002892
:1035600004D100202870204600F0F2F82420687072
:103570002068026801218A4302600F2212066368F4
:103580009343036183681B4A13408360A368E66822
:10359000012E05D1CE03334383600BE00120F8BD3B
:1035A0002127BF023B438360022E03D1CB02466832
:1035B0001E4302E0CB0246689E43466043680E4EBF
:1035C0001E434660C3681340C360226963691343A6
:1035D000A26912021A43C260E269236A13430360BC
:1035E00002680A4302600020606420216970206341
:1035F000A870F8BDFF7FFFFF008000027047704792
:1036000080B500688549884200D080BD02F042F94B
:1036100080BDC046F0B585B00646044640346078AB
:103620000225202800D081E03768B86900047DD4E5
:10363000207801287AD02120607010200290A0709C
:103640000025756473853B48F06201232370726224
:1036500039487063708D000A039104D0FF203085D3
:103660000121090605E0708D30850028049527D0DA
:10367000590601911178B962511C7162421E32855E
:10368000708D401E70851004049319D0B06B002813
:1036900027D028372A4B0025C3620563274B436395
:1036A000856393B23A46FFF76DFD002824D02020B1
:1036B0006070A5702570706C02990843706419E001
:1036C000214870631F4800901F465B0630460399EF
:1036D000049A01F047FF25703046394601F06CF935
:1036E00024E0202060700020A0702070706C802189
:1036F00001437164012519E02820305C11490091D3
:10370000401CC2B230460399019B01F02BFF25708B
:10371000308D718D081A70851021304601F04CF9FA
:103720000120800331680A6802430A60284605B018
:10373000F0BDC0460000FFFFC94F0008EB4800087D
:103740000349000800200080C150000870477047FE
:10375000F0B589B004460068304988425BD13049F1
:10376000086801252843086008680F462840039030
:103770000620089000260696122005900320079048
:10378000C002049003980520000704A9FFF768FD14
:10379000AB05B9681943B9606803224D01902862EE
:1037A000802010210D22204F2F606A60A960EE60FA
:1037B000029028616E61AE61EE611948816819401E
:1037C000039103982846FFF785FC002801D0FFF7F6
:1037D00027F8AC62A563154D019828620C201437B8
:1037E0002F606860AE60EE60029828616E61AE6125
:1037F000EE612846FFF76EFC002801D0FFF710F8B5
:10380000AC62E5631824002120460A4600F072F8F5
:10381000204600F063F809B0F0BDC04600580040F3
:1038200034100240F00500201C00024094050020E6
:10383000704770471D48007802490A6810180860F0
:103840007047C046100B002010B501242002934998
:103850000A6802430A60032000F008F8002802D139
:1038600000F026F80024204610BDC04670B50F4E6B
:1038700031780124002916D005467D20C000FCF7D0
:10388000EDFD014690480068FCF7E8FD00F066FB9E
:10389000032D08D8002806D10024E04329462246FB
:1038A00000F028F87560204670BDC046000000207A
:1038B00082B00948416801221143416041681140CA
:1038C00001910199110702680A43026000680840EB
:1038D0000090009802B070473C100240002805D4C8
:1038E0001F21084001218140014801607047C04606
:1038F00000E100E080B503F06DFA80BD70B50325EE
:1039000069020D4E32688A43024332600121490246
:10391000002488420DD16C480168062048430749BD
:10392000FCF79CFD801C7169490502D5401EFAD147
:103930002C46204670BDC0460070004040420F003B
:10394000FEB50D460121002800D1A4E001910290AE
:103950005248006807242040A84213D24F49086803
:10396000A043284308604E4EFFF754FD07464B48DE
:1039700000682040A84205D0FFF74CFDC01BB042B4
:10398000F5D987E0029B18688107704E0CD5410776
:1039900003D5210332680A4332600F2109023268DD
:1039A0008A43996811433160C00718D13B480068C9
:1039B0002040A84229D939490868A0432843086013
:1039C000374FFFF727FD0646344800682040A842DD
:1039D0001BD0FFF71FFD801BB842F5D95AE058688D
:1039E000032830D8810002A25158584A8F46C04659
:1039F000013A00084D3A0008573A0008613A0008B9
:103A000011460839096849052CE0029A10784007E8
:103A10004E4D05D5200329688143D06808432860AE
:103A200000F056F8296889093C220A401D49895846
:103A30001F220A40D040244908601B480068FFF755
:103A400015FF014627E0414A516D0AE01146083949
:103A50000968890306E0114608390968890101E00F
:103A6000916D8907019916D51168A1430143116031
:103A70000B4FFFF7CFFC0646344800683821014061
:103A800002984068C000814290D0FFF7C3FC801BC1
:103A9000B842F1D903210846FEBDC04600200240CD
:103AA00088130000E0700008040000200648006849
:103AB00026490968890A1C220A40044989581F229C
:103AC0000A40D0407047C04608000020207100081E
:103AD00010B51E4C20688006400F06D022683821A1
:103AE0000A401B48082A07D110BD083C2068800402
:103AF000410F1848C84010BD22680A40102A15D14D
:103B0000616803220A40032A00D01248616849060E
:103B1000490F491CFCF7A2FC61684904490E48435F
:103B20006168490F491CFCF799FC10BD20680840EA
:103B3000202802D10120C00310BD206808401828A9
:103B400001D0002010BD7D20000210BD08100240F1
:103B500000127A000024F400F0B587B00125002897
:103B600000D1E7E1049505900078C007F34F14D029
:103B7000B96838200840F9680325102802D1294087
:103B8000032902D0082800D097E03868800304D5C4
:103B900005984068002800D180E1059800788007EA
:103BA00024D40598007800070CD5B8683821014066
:103BB00018296DD1386E800704D5059880690028D2
:103BC00000D16BE1059A1078400700D43BE1B8685A
:103BD00038210140202900D082E0F86D800700D410
:103BE00031E19068002800D02DE157E1B968382014
:103BF0000840F9680325102802D12940022920D065
:103C000000281ED03868059AD168002900D1AFE09D
:103C10000721C9028843116901433960012001026B
:103C20003A680A433A608402FFF7F4FB06463868B4
:103C3000204200D0AEE0FFF7EDFB801B0228F6D952
:103C400078E139684905059B03D5D968002900D179
:103C500024E17F2109027A688A43596909021143E4
:103C6000796000280DD10720C002396881431869A6
:103C70000843386038688004400FB149C140B148FA
:103C80000160B1480068FFF7F1FD002889D005E127
:103C9000386E05998969002959D001210843386691
:103CA000FFF7B8FB0646386E80078BD4FFF7B2FBF0
:103CB000801B03250228F6D93CE1059841680122C2
:103CC00054041004814207D005231B0499426BD190
:103CD00091043A680A433A603968014339606CE0FC
:103CE000012003900107F86B0840029006D1F86BA1
:103CF0000843F863F86B08400690069801919348D2
:103D00000068C00513D40398040290490868204352
:103D10000860FFF77FFB06468C480068204206D10A
:103D2000FFF778FB801B03250228F5D902E10598EF
:103D30008068874C012805D005284BD1F86D0421F7
:103D40000143F965F86D03990843F8654CE00121DA
:103D500088433866FFF75EFB0646386E800700D45E
:103D600030E7FFF757FB801B03250228F5D9E1E078
:103D700001210A02904338608C02FFF74BFB064694
:103D80003868204200D10CE7FFF744FB801B022873
:103D9000F6D9CFE07F200002796881430598406919
:103DA000000208437860FCE63B6883433B60900474
:103DB0003A6882433A60002923D0FFF72BFB06467E
:103DC0003868204200D0E8E6FFF724FB801B642817
:103DD000F6D9AFE0F96D039A9143F965F96D0422C4
:103DE0009143F965002819D0FFF714FB0646F86DDA
:103DF000800720D4FFF70EFB801B0325A042F6D9D5
:103E000098E0FFF707FB06463868204200D1C4E679
:103E1000FFF700FB801B6428F6D98BE0FFF7FAFA66
:103E20000646F86D800706D5FFF7F4FA801B0325D8
:103E3000A042F6D97EE002980028059A03D1F86BDB
:103E400001998843F863D469002C72D0B86838218E
:103E50000140102924D1012C20D0F8680321014011
:103E6000059B1A6A914219D1702101405A6A914208
:103E700014D17F21090201409A6A120291420DD1A8
:103E80001F2149040140DA6A9142049D52D1072161
:103E900049070840196B88424BD04BE0049D49E02C
:103EA000012529063868049188433860FFF7B2FA83
:103EB0000646022C0BD103956C063868204211D0BF
:103EC000FFF7A8FA801B03250228F6D932E06C061A
:103ED0003868204229D0FFF79DFA801B032502286D
:103EE000F6D927E0F8681C490140059E20366DCEC2
:103EF000084310431902014329433143F9603868EC
:103F000004990843386003980007F9680143F96091
:103F1000FFF780FA0646386820420AD1FFF77AFA9E
:103F2000801B03250228F6D904E0F86809490140FE
:103F3000F9600025284607B0F0BDC04600100240D9
:103F40000024F4000800002004000020007000405D
:103F500088130000FCFFFEEF8C80C11F401E010E85
:103F600001D0012070470749074A5060074803689D
:103F70000B40032189075918016000209060072138
:103F800011607047FFFFFF0010E000E020ED00E04F
:103F9000704770477047000070B53C22825C012A70
:103FA00001D1022070BD02463C32022353700068EA
:103FB00045688368444CA04201D02E4604E00F2699
:103FC0003605B5434E682E437025AE430D68354324
:103FD0004560A04202D0DE4CA04204D18024A3431D
:103FE000896819438160002010700121517070BDF3
:103FF000F8B5002823D0044605463C3507463E3731
:10400000064644366878002804D1002028702046EF
:1040100000F018F80220687001CC214602F0B6F8D2
:104020000120307138707870B870F870387178711C
:1040300030707070B070F07068700020F8BD0120B2
:10404000F8BD00001CB50068C149884200D01CBD05
:104050000948016802221143016000681040019084
:1040600001981024002120460A46FFF743FC204611
:10407000FFF734FC1CBDC0463C10024010B53D218A
:10408000415C012918D101463D3102220A700168C4
:10409000C86801221043C8600B48814202D0AC4876
:1040A00081420BD18868094B03400020062B02D0C7
:1040B0001404A34202D110BD012010BD08681043B2
:1040C0000860002010BDC046002C01400700010020
:1040D000F8B504463C20205C012801D102226CE0A6
:1040E00025463C350220687001262E7020688268C3
:1040F000344B134083600B680027002B23D0102B18
:1041000021D0202B1FD0302B1DD0402B23D0502B63
:104110002BD0602B33D0720393423AD032039342B8
:104120003A4648D0702B4AD1FF221202836893434B
:104130004A688C68C96814430902214319438160A5
:104140008168772234E081681F4A0A4013430721BF
:10415000194381602EE0CA68496802F061F820685E
:104160008168194A0A40473223E0CA68496802F068
:1041700057F820688168144A0A40573219E0CA6823
:10418000496802F05EF8206881680F4A0A40673289
:104190000FE0FF221202836893434A688C68C96863
:1041A0001443090221431943816001218903826874
:1041B0000A4382603A462F706E701046F8BD324650
:1041C000F9E7C0468800CEFF88FFCFFF70470000A8
:1041D000F8B504460068C6680769B9074D4D15D59E
:1041E000B10713D52946FE3101610121217780698C
:1041F000800703D02046FFF7E9FF05E0204600F0E6
:104200008DF8204600F08BF800202077780717D52E
:10421000700715D520682946FC31016102212177FC
:1042200080698005800F03D02046FFF7CFFF05E0AF
:10423000204600F073F8204600F071F80020207747
:10424000380716D5300714D520682946F8310161A2
:1042500004212177C069800703D02046FFF7B6FF0D
:1042600005E0204600F05AF8204600F058F80020FB
:104270002077F80617D5F00615D520682946F031C5
:10428000016108212177C0698005800F03D0204695
:10429000FFF79CFF05E0204600F040F8204600F0C4
:1042A0003EF800202077F80708D0F00706D02068F5
:1042B0002946FF310161204600F032F84120C0015B
:1042C000074207D0300605D5206813490161204612
:1042D000FFF75FFEF80506D5300604D520680561B6
:1042E0002046FFF755FE780608D5700606D52068EB
:1042F0002946C0310161204600F02EF8B80607D5E6
:10430000B00605D52068E03505612046FFF742FE7E
:10431000F8BDC046FFFEFFFF7FDFFFFF704770471D
:1043200010B500680A49884200D010BD7D20C00049
:1043300001F0D0FE01F03EFE064CA188608801F03D
:10434000E3FC01F069FD0028EFD00120207010BDD2
:1043500000040040B000002070477047704770476D
:1043600070477047F0B585B005460168CA690868AE
:1043700003955C3504958B680125EE0237460F37AF
:104380003A4202956AD0BE4C04402D076F1C1F4074
:104390003C196CD00195D4070AD0C40508D500900B
:1043A00002980862049D6C6B0298044300986C6349
:1043B00094070BD5DC0709D002240C62049C646BC3
:1043C00000940424009D2C43049D6C6354070BD57A
:1043D000DC0709D004240C62049C646B0094022462
:1043E000009D2C43049D6C63140709D520240440D0
:1043F000274305D008240C62049D6F6B27436F632D
:10440000324207D0440105D50E62049D6C6B202614
:1044100026436E63049C646B002C039C00D12CE14A
:1044200092060BD5019A134020221040184305D064
:10443000626F002A02D02046904721680498406BA2
:104440002822024088684026304080183FD120460C
:10445000FFF787FF0020049948630EE1960606D512
:1044600020260640029C27071F40F61957D1039FBC
:10447000FC6E012C03D1D40601D5C40656D4D40257
:1044800001D55C021CD4029EF105140604D50B4034
:10449000802404401C433CD1530602D5430600D57A
:1044A00085E00A4202D0410000D598E0D10100D455
:1044B000E3E0002800D4E0E03846FFF74FFFDCE0FF
:1044C0000298000508623846FFF74AFFD5E020460B
:1044D00001F08EFF20688068400600D47BE0EFF397
:1044E0001080029981F3108821688A68B2438A603B
:1044F00080F310880498406A00286CD06149816379
:10450000FEF75CFD002800D1B7E00498406A816B9B
:104510000AE0B96F002900D1AFE0384604E0039803
:10452000416F002900D1A8E08847A6E0102008626A
:104530008968490657D4049D69882A886B88002BAE
:1045400000D19AE08A4200D197E0EFF31083019105
:10455000029981F31088092464013E6800923A466A
:104560003768A743376083F31088EFF3108381F334
:1045700010881468A668454F3740A76083F31088F9
:1045800020232B6300235367D366EFF3108381F35B
:104590001088146825688543256083F310880220FD
:1045A000106701980099081A81B2104663E0EFF392
:1045B000108086F3108839680A6840239A430A609D
:1045C00080F310880020B86720200499C86238461C
:1045D00000F068F951E02046FFF7C3FE4DE0384691
:1045E000FFF7BDFE49E0049D696A09684A6893B215
:1045F000002B42D02C88A3423FD26A8009688906EA
:1046000032D4EFF31081029E86F310881E4A2032C6
:104610003B681C6814401C6081F31088EFF3108124
:1046200086F310883A689368B343936081F31088E7
:10463000EFF3108186F310883A6893684024A3430F
:10464000936081F31088202129630021F966EFF33C
:10465000108186F310883A6813688343136081F3EE
:104660001088686AFEF774FC022038672888698819
:10467000401A81B23846FFF770FE05B0F0BDC04663
:1046800020010004D9630008DFFEFFFFFEFFFFEFFB
:10469000B0B500282FD00446054684356868002848
:1046A00004D100202870204600F028F824206860FB
:1046B000206801680125A9430160A06A002802D092
:1046C000204601F0D1FD204602F036F9002813D132
:1046D0000920C00221684A6882434A6088682A2209
:1046E000904388600868012202430A60204601F076
:1046F00017FE054600E001252846B0BDB0B586B0DE
:1047000000683949884226D1144882680121059100
:104710004B041A43826082681A400092009A026831
:104720000A43026000680840009000240494039447
:10473000022002900C20019000980520000701A99A
:10474000FEF78EFD1C25284621462246FFF7D2F8AB
:104750002846FFF7C3F806B0B0BDC046341002408B
:10476000F8B58C23C358202B22D10124002920D056
:10477000002A1ED001231C038568A54204D10469C8
:10478000002C01D1CC0716D10024C46605686D68E1
:104790002D020AD5EFF3108583F310889B06066877
:1047A00037681F43376085F3108802F073F900E023
:1047B00002242046F8BD1C46FBE7000070B50068E7
:1047C0000949884200D070BD0848841D084D012663
:1047D00028462146324600F00DF82846214632464A
:1047E000FFF7BEFF70BDC04600440040B00000208F
:1047F000EC060020F0B5034605465435686B2028CA
:1048000020D10120002943D0002A41D09E680124F4
:104810002703BE4204D11869002801D1C8071AD164
:104820006A800020E8632A80196521216963610795
:104830005A6E8A4208D1BE4202D1196900290CD0B1
:1048400017490BE00220F0BDBE4202D119690029D0
:1048500011D0114910E02046F0BD10499967EFF3DF
:10486000108184F31088E2051B689C6814439C60E7
:1048700081F31088F0BD07499967EFF3108184F345
:1048800010881A68136880241C43146081F3108810
:10489000F0BDC046C16B00088D6C00081D6C00089F
:1048A000E56C00087047FEE780B50748006880693E
:1048B0004005400F03D00448FEF70AFE80BD0248C1
:1048C000FEF72FFE80BDC0464C06002080B5806AF2
:1048D000816B002901D000228A63C16B002901D0BD
:1048E00000228A6300F058FE80BD80B50121C90313
:1048F000806A026853680B435360102100F0FEF891
:1049000080BD10B501218903846A2268106888433C
:104910001060608D002808D0208D616A09186162DE
:10492000608DFF2803D9FF2302E020210DE0638D75
:104930002385A06B2832FEF725FC002804D0102127
:10494000204600F0DBF810BD4021204600F034F88E
:1049500010BD10B5CA0701D1002308E04122825CD6
:1049600028231340282B01D0F22300E042238A079A
:1049700001D41A4609E04122825C28241440282CE4
:1049800001D0F42200E044221A430BB2002B01D5DF
:10499000B8231A43102901D190231A43202901D1A9
:1049A00020231A43402901D140210A4300680168AD
:1049B0009143016010BD0000426B1F4B9A420AD028
:1049C0001E4B9A4207D01E4B9A4204D00AB2002ACC
:1049D0001BDAB8221AE00AB2002A01DAB82200E093
:1049E0000022CB0701D0F2231A438B0701D5F42311
:1049F0001A43102901D190231A43202901D16023A1
:104A00001A43402912D140210FE00022CB0701D0E8
:104A1000F2231A438B0701D5F4231A43102901D13D
:104A200090231A43202901D120210A4300680168FC
:104A3000114301607047C046C94F00083553000854
:104A40000952000800688169890701D50021816247
:104A50008169C90703D1816901220A4382617047D4
:104A6000F8B505460446403460782821014028689E
:104A700028291DD1816983698268C6680096FE264F
:104A80001F0CC903CB0FE968022916D1D10979405F
:104A90004907890F20D0009F37400120C1032846D5
:104AA0001E46FFF756FF00202070284631460FE0D3
:104AB000002121700821C161F8BD0120C1032846F1
:104AC0000093FFF746FF00202070374028460099EA
:104AD0003A46FEF7FCFCF8BDA96C491CA964A96C18
:104AE0000229E9D104490A400021A9642170082162
:104AF000C16128461946ECE7FF03000070B5044683
:104B00000546403568780026AE70854AE2626685C3
:104B1000626C0A4362642838022807D803212046C1
:104B2000FFF717FF28206870304E19E048492046EB
:104B3000FFF70FFF2046FFF785FF687860280FD04A
:104B40002020687021688A69920609D58A69D20690
:104B500005D51022CA61626C042313436364C861E3
:104B60006663A06B216B00281BD0212901D011297D
:104B700017D121680A68520404D5012292030B68F8
:104B800093430B60FEF752FA01281ED000202870D4
:104B9000A06B17498163FEF711FA002818D0A06BAB
:104BA00021E0E06B002810D0222901D012290CD17D
:104BB00021680A68120404D50122D2030B689343CA
:104BC0000B60FEF733FA012803D1204600F0E4FC25
:104BD00070BD00202870E06B05498163FEF7EEF997
:104BE0000028F5D0E06B816B884770BD59540008F0
:104BF000CD48000870B50446D748E062002525631B
:104C000026464036202070706563B570480712D57F
:104C1000606A2168496A0170606A401C6062208D88
:104C2000002808D0618D491E6185401E2085606C7A
:104C300004210143616406492046FFF78AFE35706E
:104C400020681021C1612046FEF7D8FC70BDC04627
:104C500003800000FEB50D46044600682021019146
:104C6000C161264640367078212802D111270121E2
:104C700004E07078222805D1122702212046FFF790
:104C800068FE276320684168B24A0A4042600027F4
:104C90006763B149E162E90605D51021C161616C24
:104CA00004220A4362647178602905D1690703D53B
:104CB000406AC0B2029002982046FFF7C3FE606CC3
:104CC0007178602910D000280ED17078212810D179
:104CD0000198707027633770B078B770402817D18B
:104CE0002046FEF734FDFEBD616C2046FFF706FF4F
:104CF000FEBD7078222812D101987070276337703A
:104D0000B078B770402807D12046FEF71FFDFEBDE2
:104D10002046FEF775FCFEBD2046FEF770FCFEBD8A
:104D20000000FFFF70B50446054640350026AE7012
:104D300068782021697021280BD1666311202063D7
:104D400001212046FFF705FE2E702046FEF758FC95
:104D500070BD66631220206302212046FFF7F9FD33
:104D60002E702046FEF74BFC70BD0000F0B585B0FC
:104D70000491044601680F68C06A019020464030E3
:104D80000390407820220292CA612138C1B20929D9
:104D90000ED8604ACA40D1070AD045B268005EA169
:104DA000095A2046FFF7D5FDA80060A108582063E6
:104DB0000126F50320684168294341604168654A3E
:104DC0000A4042602046FFF73DFE780400960CD46E
:104DD0003A462F42049B039E15D020680168A943E0
:104DE0000160E06B00280BD10DE0B00321680A6878
:104DF00082430A603A46A06B0028049B039E02D0BF
:104E0000006840686085580710D5606A2168496A63
:104E10000170606A401C606204208343208D00287A
:104E200004D0401E2085608D401E6085608D002866
:104E300003D0606C042101436164D80637D5D006E5
:104E400035D5608D002812D020681021C161606CBA
:104E500004210143616400980006019901438142E5
:104E600025D1616C20461D46FFF748FE1EE0707894
:104E70002828009809D140060199814205D1204691
:104E800019461D46FFF7B6FE10E070782168102223
:104E9000CA6129280BD1DB480199814207D02046FD
:104EA0001D46FFF7CFFD204600F058F82B460025A1
:104EB000B5706563606C00280CD01D46616C20469F
:104EC000FFF71CFE7078282822D120462946FFF7DC
:104ED00091FE1DE0E06ACB4FB8420AD1707802998A
:104EE00071703570256322280FD12046FEF7A0FC93
:104EF0000EE0204600F032F8E762029870703570DC
:104F000025632046FEF77AFB02E02046FEF791FC7F
:104F100005B0F0BD830300000180028001800180A4
:104F20000180018001800380018002802100000057
:104F300022000000210000002100000021000000EC
:104F400021000000210000000000000021000000FE
:104F50002200000000E800FE0000FFFF70B50446DC
:104F600000680168254640350026AE704A0403D427
:104F7000090405D5134900E0114902680A4002609E
:104F8000687829280CD1282068702120206301210D
:104F90002046FFF7DEFC2E702046FEF74AFC70BD6F
:104FA00068782A280BD128206870222020630221EB
:104FB0002046FFF7CEFC2E702046FEF739FC70BD70
:104FC000FFBFFFFFFF7FFFFF7CB504464020235C4F
:104FD000012B01D102207CBD2546403501262E70D3
:104FE000CB0601D5D3060FD40B0601D553061AD430
:104FF000480601D5500627D488065DD590065BD5B6
:105000002046FFF727FE57E020681021C161606C41
:1050100004210143616420212046FFF7CDFC204696
:10502000FFF710FD48E021680A6882430A60608D3E
:105030004968002818D072480140608D000A1ED0CF
:10504000FF202085330623E0608D002812D12068E0
:105050004168890130D4E16AF34A914206D1B10333
:1050600042680A43426027E0880103D42046FFF7E4
:1050700059FE21E040212046FFF740FD1CE0608DF5
:105080002085E26AE84B9A4201D1730600E0E36AA8
:1050900000220092C2B2204600F064FA208D618D99
:1050A000081A60856A7820680168222A01D1F20313
:1050B00000E0B20311430160002028707CBDC046AF
:1050C000FEB50C4605464021405C012801D1022076
:1050D000FEBD16462F46403701203870E20601D546
:1050E000F20621D4620701D5720728D4214003D1EA
:1050F000A20701D5B20745D4220601D572062ED4E7
:10510000002972D0710670D5698D002935D12968C2
:105110004A68920169D4EA6AC34B9A4229D1800352
:105120004A6802434A6060E028681021C161686CE7
:105130000421014369642846FFF784FC55E0686A4E
:105140002968496A0170686A401C6862288D401E9F
:105150002885688D401E68850420844345E0698D5C
:10516000002902D0298D00291CD0286840688001C0
:1051700003D42846FFF7D6FD37E040212846FFF745
:10518000BDFC32E0688D00282FD02868696A0A7853
:105190008262481C6862288D401E2885688D401EEA
:1051A000688522E029684A68FA4911406A8D120A26
:1051B00005D0FF222A8500230093030612E06A8DA2
:1051C00001922A85EB6A0293E54B029A9A42019A70
:1051D00004D100230093D2B2430603E0EB6A00201F
:1051E0000090D2B2284600F0BDF9A00605D5B00661
:1051F00003D528462146FFF72DFD00203870FEBD5F
:10520000FF0300000000FFFFF8B504464020205CCB
:10521000012801D10220F8BD264640360120307019
:10522000C80601D5D00613D4880701D590071ED42F
:10523000080601D5500621D4480601D5500634D4BD
:10524000880670D590066ED52046FFF703FD6AE00C
:1052500020681021C161606C042101436164202138
:105260002046FFF7A9FB2046FFF7ECFB5BE0206D33
:10527000216888620020C043206554E00125204653
:105280002946FFF766FB10212046FFF795FB608D4E
:10529000002818D0608D000A2CD0FF222285E06CF7
:1052A000002100912B0681B22CE0012520462946E1
:1052B000FFF74FFB10212046FFF77EFB7078222876
:1052C00006D01B4805E040212046FFF717FC2AE0E6
:1052D0001648618D090A05D0FF222285E16C0090F5
:1052E0002B060EE0618D2185E76C00906B06CAB23B
:1052F000B9B207E0608D2085E16C002200926B0658
:10530000C2B289B2204600F02DF9208D618D081AB5
:105310006085727820680168222A01D1EA0300E0E2
:10532000AA031143016000203070F8BD0024008002
:1053300000200080F8B504464020235CE06A012B81
:1053400001D10220F8BD2546403501232B708E0681
:1053500001D596060BD4CE0601D5D6060BD4080788
:105360005ED510075CD52046FFF77AFB58E0204653
:10537000FFF7FCFC54E01704BE0F34D09E0332400C
:105380000026002F06D5E76B002F03D03E68776814
:105390007E427E41002A06D0A26B002A03D012680A
:1053A0005268002A23D0002E21D121681022CA6120
:1053B000616C04220A4362641A06104369789042C1
:1053C0002ED12139C8B2092808D8184AC240D007BE
:1053D00004D048B2800016A108582063616C2046B2
:1053E000FFF78CFB1CE020681021C16118E06A788F
:1053F000282A06D15A06904203D12046FFF7FAFB2D
:105400000EE0697822681023D361292908D1064962
:10541000884205D02046FFF715FB2046FFF79EFD8A
:1054200000202870F8BDC0460000FFFF0303000005
:1054300021000000220000002100000021000000E7
:1054400021000000210000002100000021000000D8
:10545000210000002200000070B504464020235CBB
:10546000E06A012B01D1022070BD254640350123A1
:105470002B708E0601D596061FD4CE0601D5D60612
:105480001FD44E0701D556072ED40E0701D5160797
:1054900041D4890761D591075FD5618D002955D029
:1054A0002068616A0A788262481C6062208D401E12
:1054B0002085608D401E60854FE02046FFF756FC3A
:1054C0004BE0628D002A2AD021681022CA61616CEB
:1054D00004220A4362641906084388423DD1616C84
:1054E0002046FFF70BFB38E0618D00290CD0616A84
:1054F0002268526A0A70616A491C6162218D491EE4
:105500002185618D491E6185618D002925D1144950
:1055100088421FD121E02046FFF7A2FA1DE06A78F9
:10552000282A06D15A06904203D12046FFF762FB93
:1055300013E0697822681023D36129290DD1084925
:1055400088420AD02046FFF77DFA03E01906084397
:10555000884202D12046FFF701FD0020287070BD6F
:105560000000FFFF70B5049CE50FAD02084E6E40D1
:10557000006845683540074E0E40110489191943EB
:1055800021430122D20791432943416070BDC046A7
:10559000009C00FCFF03000080B5014640314A78C2
:1055A000602A07D120224A7000220A700263FDF7A8
:1055B0008DFF80BD00220A700263FDF7BBFF80BD36
:1055C000FEB53C211F48012444542C2144540021A1
:1055D00080220C23036442648164C16401634163DB
:1055E000C461817601830422174BA502061D317721
:1055F000E607A70788C0016041608660C2602A464E
:10560000C032C26105620291019100910838FDF734
:10561000F1FA002801D0FDF703F90194009409483C
:105620006946FDF7B5F9002801D0FDF7F9F80748FC
:10563000009004486946FDF7ABF9002801D0FDF75A
:10564000EFF8FEBDD4040020002401400200000455
:10565000BCB50E480168012211430160006810408A
:105660000190019809240025204629462A46FEF784
:1056700041F92046FEF732F90A24204629462A46F7
:10568000FEF738F92046FEF729F9BCBD3810024074
:10569000F0B587B0002406941B480168042211432A
:1056A00001600168114001910199016801273943A6
:1056B00001600068384001900198FD03134E3046A8
:1056C00029462246FDF79FFE059404940397029510
:1056D00002AD30462946FDF7C3FD049421200004A5
:1056E0000390F0200290052000072946FDF7B8FD41
:1056F0000725284621462246FEF7FCF82846FEF7F5
:10570000EDF807B0F0BDC04634100240000800506C
:10571000B0B59D4C012500201249134A22606160FA
:10572000A060E560204610301421FAF750FE2046B4
:10573000FDF70EFF002801D0FDF772F89248002116
:10574000FDF76EFE002801D0FDF76AF88E480021B3
:10575000FDF787FE002801D0FDF762F86805FDF728
:10576000A1FEB0BD290B30000058004010B588B034
:10577000164880218161002415493F22154B0360A2
:1057800042608460C16004610794069405940294A9
:10579000FEF72EFC002801D0FDF742F8012000039F
:1057A00004900A4804A9FEF793FC002801D0FDF7F5
:1057B00037F8039420200190044801A9FEF7ECFB80
:1057C000002801D0FDF72CF808B010BDA00600207D
:1057D000E70300000004004010B50C4C0C20002131
:1057E0000B4AE1235B020CC421606160A160E060B0
:1057F000083C204618301421FAF7E9FD2046FEF750
:1058000047FF002801D0FDF70BF810BDEC06002083
:1058100000440040FEE700000020D249082809D0DB
:105820000022802A03D000238B54521CF9E78031D8
:10583000401CF3E77047C046FCB50090121858189A
:1058400001900BB20198984219DD07250D40012601
:10585000AE40F543DE08009F3BB29A420DDD88B2B0
:105860003F2808D8B8B27F2805D8F001BD4C2018D1
:10587000C45C2C40C4547F1CEEE7491CE1E7FCBD2E
:1058800080B500F011F86748654900220A5400F01D
:1058900041F880BD80B500F007F8624860490022F9
:1058A0000A5400F037F880BDB0B55C4C5C4D285D03
:1058B00003210902695C814204D0401C6021FAF78F
:1058C000CDFD2955B0BDC046FEB5029300920191B1
:1058D0000746EFF3108072B603200402504D2E5D90
:1058E000701C6021FAF7BAFD4C48285C814202D155
:1058F00062B60020FEBDF0002F54295528180099EB
:105900004160029981700199417062B600F002F81D
:105910000120FEBD70B5434C414D285D002800D0EC
:1059200070BD3E4EA85D03210902695C8142F7D03B
:105930001548FDF709FE2028F2D1A85DC100685C7A
:1059400000280DD0114840222A54C1208000281878
:105950006E187168B278FAF7DBFCB078401C07E08B
:105960000A4800222A5428186918497841700220F0
:1059700006496A18C3B204487821FDF74BFE002897
:10598000CED10120285570BD4C0600200303000035
:1059900010B56420FDF738FCAE20344CA047D5206C
:1059A000A0478020A047A820A0473F20A047D320A1
:1059B000A0470020A0474020A047A120A047C82022
:1059C000A047DA20A0471220A0478120A047CF207F
:1059D000A047D920A047F120A047DB20A0473020D6
:1059E000A047A420A047A620A0478D20A0471420B0
:1059F000A047AF20A047FFF70FFF00F05BF910BDF5
:105A000006480749085C032212028A5C42400548A6
:105A1000095C1143484248417047C04601030000F9
:105A20008007002002030000F0B5C1B014460D4607
:105A3000064646AA009201AF38461946FAF756FCC8
:105A4000304629463A46234600F08EF841B0F0BD74
:105A5000B0B50C46B0210843044DA84720091030CA
:105A6000A8470F202040A847B0BDC046DD5C000815
:105A70001CB5062B0AD0082B12D112010A4BD218E2
:105A80000A4BD21800920822102307E00624624332
:105A9000044BD218C03A00920823224600F008F8BE
:105AA0001CBDC046437200087D74000800FEFFFF65
:105AB000F0B58BB01E460F4603900492FFF7BCFE74
:105AC000380B08210840FA13530FFB1807241DB2A6
:105AD000A343FB1AC31898B20890C91A88B207905A
